:400000000080002011000000810500008105000008B5044B1A6803F53F5302331A6000F0CFFA00BFFA46004010B5054C237833B9044B13B10448AFF300800123237010BDA2
:400040003881FF1F00000000C01A0000084B10B51BB108490848AFF300800848036803B910BD074B002BFBD0BDE81040184700BF000000003C81FF1FC01A0000C880FF1F6E
:40008000000000002DE9F043B5B0594D47F6FF732B80584C2380A86801F08EF880B200F0E7FBA06801F088F880B200F09DFC00F083FB2B88181A288000F03AFC2388181A8E
:4000C0002080002000F080FB002000F039FC1AAF2E460FCE0FC70FCE0FC70FCE0FC733683B604FF00008CDF87480BDF86C00BDF96830C01A00F096FE07462090414600F0C3
:40010000E5FE219900F0DAFD8146219023972499384600F0DBFE07462599484600F0D6FE0146384600F0CAFD01461C9800F0C6FD1C9027AF0DF1680EBEE80F000FC7BEE877
:400140000F000FC7BEE80F000FC7DEF800E0C7F800E027AF0FCF0FC50FCF0FC50FCF0FC5C6F800E06E4625460FCD0FC60FCD0FC60FCD0FC62B683360CDF80C80BDF80400CE
:40018000BDF90030C01A00F04DFE06460690414600F09CFE079900F091FD0746079009960A99304600F092FE06460B99384600F08DFE0146304600F081FD0146029800F032
:4001C0007DFD02900DAE6F460FCF0FC60FCF0FC60FCF0FC63F6837600DAE0FCE0FC40FCE0FC40FCE0FC42F6035B0BDE8F08300BF6481FF1F9881FF1F30B40D4B4FF6FF72EA
:400200001A805A8048F20A049C8000209860094999624FF07E52DA62074B47F6FF751D805D809C8098609962DA6230BC704700BF9881FF1F0000A0416481FF1F10B584B0F8
:4002400062B600F023FC00F065FB00F06BFAFFF7D3FF00F0A3FB00F0E5FA1C4800F024FA1B4CB4F900201B4901A801F005F801A800F072FAA288184901A800F0FDFF01A81E
:4002800000F06AFAB4F90220144901A800F0F4FF01A800F061FAA288B4F90030D21A104901A800F0E9FF01A800F056FAA06800F05DFF02460B4901A800F0DEFF01A800F089
:4002C0004BFA0A2000F05AFACAE700BF850000009881FF1FC41A0000D41A0000E41A0000F01A0000F81A0000FEE700BFF0B40022174611E050F82760F3B226F0FF0608E00A
:4003000001EB420511F812406D78A5550132013BDBB2002BF4D10137222FEBD9F0BC7047064B1B78DBB203F00701054A11701B09013213704422034B1A707047CF01004990
:400340006E5800407658004008B50A46002100F08AFF08BD38B507222D4B1A8018232D4A13704FF49C71023211800232137040F2DF11023211800232137042F20F72264B10
:400380001A801B2202331A70062203F272231A705222A3F580731A70204B1B78DBB2204A13704FF4E1621F4B1A8041F25122023B1A80002419250CE01B4B1B7803F0010325
:4003C00043EA440404F003044FF4F07000F060FC013D0DB1032CEFD115B90320FFF784FF124A4FF48073138007231370002310490B7048200231087013700532137002220C
:400400000C4B1A700C4A137843F00F03137038BD80400040824000408C4000400F010049A14600402242004025420040044000400640004001400040A243004008B500F007
:4004400007FF08BD38B572B63A4A137843F00403137000240CE0384D630019194A0011462A44084691882858FFF76EFF0134E4B2062CF0D900240BE02F49A30018194200EA
:4004800088180622016BC06AFFF7D8FF0134E4B2002CF1D029494FF09040FFF727FF284B284A136002F5A052136002F56C522B32137843F0020313701032137843F00203AB
:4004C0001370214C237843F040032370A2F58632513A137843F0100313700A221B491C48FFF7ACFF0A221B491B48FFF7A7FF08221A491B48FFF7A2FF08221A491A48FFF7AA
:400500009DFF082219491A48FFF798FF194A137843F008031370184D61232B70FFF71AFF81232B70FFF7FCFE0E2221461348FFF785FF38BDE8460040041B00008C00004871
:4005400004040444D8000140A0430040E40B0048C0510040F00B0048F0510040FC0B004812510040040C0048225100400C0C0048325100402243004000480040B043004023
:4005800008B500F039FE03680C2B00D1FEE7FEE708B5094B1A681044084BC31A802B02DC054B186005E000F027FE0C2303604FF0FF32104608BD00BFCC80FF1FD081FF1F03
:4005C00008B5104E104D16E029686B68AC68002204E051F8040B43F8040B0432A242F8D1E868002203E0002143F8041B04328242F9D11035013E002EE6D100F003FEFFF7A6
:400600001DFEFEE701000000941B000008B5104A104B1A60104A136843F40073136000230AE0032B03D80D4A52F8231000E00C490C4A42F8231001332F2BF2D90A4B1A780A
:400640000A4B1A70074A0A4B1A60FFF7FBFE08BD0004FA050CED00E014ED00E000000000810500000080FF1FBC760040C080FF1F08ED00E0014B1B68D864704708ED00E0AA
:400680004001C0B2014B1870704700BF03E400E00822014B1A60704700E100E00822014B1A60704780E100E010B50446FFF7F6FF2046FFF7DFFF0720FFF7E2FFFFF7E8FF17
:4006C00010BD00BF7222084B1A70202201331A700622A3F5B5731A70472210331A70002256331A70704700BF8A65004010B500F0D7FA04460A4A137843F0200313700132C0
:40070000137843F010031370A2F58272137843F01003137000F042F8204600F0C5FA10BD9A65004008B5054B1B7823B9FFF7CAFF0122024B1A70FFF7D9FF08BD5481FF1F80
:40074000034B1B7813F0040FFAD1024B18707047676400404064004038B5074B1B782BB938BDFFF7EDFF0134A4B201E005460024285D0028F5D138BD5481FF1F08B5064B6B
:400780001B783BB1FFF7DCFF0D20FFF7D9FF0A20FFF7D6FF08BD00BF5481FF1F054A137843F0020313701032137843F002031370704700BFA243004008B500F08FF9A0F500
:4007C000004000B208BD00BF08B5002803DB80B280F4004002E0A0F5004080B200F078F908BD00BF024B187800F00F00704700BF66640040014B1870704700BF866400403C
:4008000008B50F20FFF7F6FFFFF7ECFF00F048FA034A137843F01003137000F045FA08BD9664004008B500F0ABF94FF4004000F04FF9044B1B7813B90122024B1A70FFF755
:40084000DFFF08BD5681FF1F024A137843F08003137070477B640040014B1880704700BF14680040014B1880704700BF94680040014B1880704700BF54680040014B187024
:40088000704700BF8C640040014B1878704700BF6C640040014B188880B27047B468004008B501E0FFF7F6FFFFF7EEFF10F0100FF8D108BD08B5154A137803F0C00343F056
:4008C000090313701F32137843F0010313700132137843F00103137040F2E730FFF7BCFF40F2E730FFF7BEFF0020FFF7C1FF0020FFF7C4FF00F0D4F9054A137843F01003D9
:40090000137000F0D1F9FFF7CBFF08BD7B6400409C64004008B5054B1B7823B9FFF7CAFF0122024B1A70FFF78FFF08BD5781FF1F08B500F04DF9A0F5004000B208BD00BF24
:4009400008B5002803DB80B280F4004002E0A0F5004080B200F036F908BD00BF024B187800F00F00704700BF67650040014B1870704700BF8765004008B50F20FFF7F6FF97
:40098000FFF7ECFF00F08CF9034A137843F01003137000F089F908BD9765004008B500F069F94FF4004000F00DF9044B1B7813B90122024B1A70FFF7DFFF08BD5881FF1F0D
:4009C000024A137843F080031370704775640040014B1880704700BF18680040014B1880704700BF98680040014B1880704700BF58680040014B1870704700BF8B64004090
:400A0000014B1878704700BF6B640040014B188880B27047B868004008B501E0FFF7F6FFFFF7EEFF10F0100FF8D108BD08B5154A137803F0C00343F0090313702732137804
:400A400043F0010313700132137843F00103137040F2E730FFF7BCFF40F2E730FFF7BEFF0020FFF7C1FF0020FFF7C4FF00F018F9054A137843F01003137000F015F9FFF707
:400A8000CBFF08BD756400409B64004008B5054B1B7823B9FFF7CAFF0122024B1A70FFF78FFF08BD5981FF1F024A137843F080031370704774640040014B1870704700BFB0
:400AC00085650040014B1878704700BF65650040014B1880704700BF086A0040024B1B78024B188880B2704704650040886A0040014B188880B27047886A0040014B1880E8
:400B0000704700BF486A0040014B1880704700BF686A004008B501E0FFF7EAFFFFF7D2FF10F0400FF8D108BD08B5134B1A7802F0F8021A701A7802F0FC021A70FFF7EAFFB2
:400B40004FF40040FFF7DAFF4FF40040FFF7C0FF0020FFF7B1FFFFF7B5FF4FF40040FFF7D3FF00F09DF8054A137843F01003137000F09AF808BD00BF7464004095650040B0
:400B800008B5054B1B7823B9FFF7CEFF0122024B1A70FFF789FF08BD5A81FF1F024A137843F080031370704774650040014B1870704700BF81640040014B1878704700BF1F
:400BC00061640040014B1880704700BF08680040024B1B78024B188880B270470464004088680040014B188880B2704788680040014B1880704700BF48680040014B188025
:400C0000704700BF6868004008B501E0FFF7EAFFFFF7D2FF10F0400FF8D108BD08B5134B1A7802F0F8021A701A7802F0FC021A70FFF7EAFF4FF40040FFF7DAFF4FF400402A
:400C4000FFF7C0FF0020FFF7B1FFFFF7B5FF4FF40040FFF7D3FF00F023F8054A137843F01003137000F020F808BD00BF746500409164004008B5054B1B7823B9FFF7CEFF3D
:400C80000122024B1A70FFF789FF08BD5B81FF1F0230800803D000BF01380046FCD17047EFF3108072B6704780F31088704700BF80F0004002E000BF81F0004142001FBFB9
:400CC0005FEA410392EA030F7FEA226C7FEA236C6AD04FEA1262D2EB1363C1BFD218414048404140B8BF5B42192B88BF704710F0004F40F4000020F07F4018BF404211F0DA
:400D0000004F41F4000121F07F4118BF494292EA030F3FD0A2F1010241FA03FC10EB0C00C3F1200301FA03F100F0004302D5494260EB4000B0F5000F13D3B0F1807F06D38E
:400D400040084FEA310102F10102FE2A51D2B1F1004F40EBC25008BF20F0010040EA03007047490040EB000010F4000FA2F10102EDD1B0FA80FCACF1080CB2EB0C0200FA3E
:400D80000CF0AABF00EBC25052421843BCBFD0401843704792F0000F81F4000106BF80F400000132013BB5E74FEA41037FEA226C18BF7FEA236C21D092EA030F04D092F0E2
:400DC000000F08BF0846704790EA010F1CBF0020704712F07F4F04D1400028BF40F00040704712F100723CBF00F50000704700F0004343F0FE4040F4000070477FEA226251
:400E000016BF08467FEA23630146420206BF5FEA412390EA010F40F4800070474FF0000304E000BF10F0004348BF40425FEA000C08BF704743F0964301464FF000001CE09C
:400E400050EA010208BF70474FF000030AE000BF50EA010208BF704711F0004302D5404261EB41015FEA010C02BF84460146002043F0B64308BFA3F18053A3F50003BCFAF3
:400E80008CF2083AA3EBC25310DB01FA02FC634400FA02FCC2F12002BCF1004F20FA02F243EB020008BF20F00100704702F1200201FA02FCC2F1200250EA4C0021FA02F236
:400EC00043EB020008BF20EADC7070474FF0FF0C1CEAD0521EBF1CEAD15392EA0C0F93EA0C0F6FD01A4480EA010C400218BF5FEA41211ED04FF0006343EA501043EA5111C2
:400F0000A0FB01310CF00040B1F5000F3EBF490041EAD3715B0040EA010062F17F02FD2A1DD8B3F1004F40EBC25008BF20F00100704790F0000F0CF0004C08BF49024CEAEA
:400F4000502040EA51207F3AC2BFD2F1FF0340EAC250704740F400004FF00003013A5DDC12F1190FDCBF00F000407047C2F10002410021FA02F1C2F1200200FA02FC5FEAC3
:400F8000310040F1000053EA4C0308BF20EADC70704792F0000F00F0004C02BF400010F4000F013AF9D040EA0C0093F0000F01F0004C02BF490011F4000F013BF9D041EA37
:400FC0000C018FE70CEAD15392EA0C0F18BF93EA0C0F0AD030F0004C18BF31F0004CD8D180EA010000F00040704790F0000F17BF90F0004F084691F0000F91F0004F14D003
:4010000092EA0C0F01D142020FD193EA0C0F03D14B0218BF084608D180EA010000F0004040F0FE4040F40000704740F0FE4040F4400070474FF0FF0C1CEAD0521EBF1CEA8A
:40104000D15392EA0C0F93EA0C0F69D0A2EB030280EA010C49024FEA402037D04FF0805343EA111143EA10130CF000408B4238BF5B0042F17D024FF4000C8B4224BF5B1ABE
:4010800040EA0C00B3EB510F24BFA3EB510340EA5C00B3EB910F24BFA3EB910340EA9C00B3EBD10F24BFA3EBD10340EADC001B0118BF5FEA1C1CE0D1FD2A3FF650AF8B4292
:4010C00040EBC25008BF20F0010070470CF0004C4CEA50207F32C2BFD2F1FF0340EAC250704740F400004FF00003013A37E792F0000F00F0004C02BF400010F4000F013A61
:40110000F9D040EA0C0093F0000F01F0004C02BF490011F4000F013BF9D041EA0C0195E70CEAD15392EA0C0F08D142027FF47DAF93EA0C0F7FF470AF084676E793EA0C0F30
:4011400004D14B023FF44CAF08466EE730F0004C18BF31F0004CCAD130F000427FF45CAF31F000437FF43CAF5FE700BF4FEA4002B2F1FE4F0FD34FF09E03B3EB12620DD965
:401180004FEA002343F0004310F0004F23FA02F018BF404270474FF00000704712F1610F01D1420205D110F0004008BF6FF0004070474FF00000704742000ED2B2F1FE4F35
:4011C0000BD34FF09E03B3EB126209D44FEA002343F0004323FA02F070474FF00000704712F1610F01D1420202D14FF0FF3070474FF00000704700BF014B1868704700BF3C
:401200003081FF1F0E4B70B51E460E4C0025E41AA410A54204D056F8253098470135F8E700F0A6FC084B094C1E46E41AA4100025A54204D056F8253098470135F8E770BD86
:401240007C1B00007C1B00007C1B0000841B000010B5431E0A44914204D011F8014B03F8014FF8E710BD03460244934202D003F8011BFAE7704700000EB400B54FF4027191
:401280009CB0ADF814106FF00041049107914FF6FF711DAB02900690084853F8042BADF81610006802A9019300F064F8029B00221A701CB05DF804EB03B070473081FF1F8D
:4012C0002DE9F0478E6882469E420C46914698463ED88A8912F4906F3AD02568096902236F1A656905EB450595FBF3F57B1C43449D4238BF1D4653050FD5294600F040FB6A
:40130000064698B13A462169FFF7A2FFA38923F4906343F08003A38113E02A4600F08EFB064670B92169504600F0DEFA0C23CAF80030A3894FF0FF3043F04003A381BDE834
:40134000F08726613E44266046466561ED1BA560464528BF464649463246206800F0A8FAA36800209B1BA36023681E442660BDE8F08700002DE9F04F9DB003938B89804664
:401380001C060D4616460DD50B695BB9402100F0F7FA2860286118B90C23C8F80030CDE040236B610023099320238DF82930DFF89CB130238DF82A3037463C4614F8013B56
:4013C0001BB9B7EB060910D003E0252BF9D02746F3E74B46324629464046FFF771FF013000F0A780099B4B4409933B78002B00F0A08000234FF0FF320493079305920693E8
:401400008DF853301A930126052221784E4800F041FA671C049B38B14B4A3C46801A06FA00F018430490EFE7D90644BF20228DF853201A0744BF2B228DF8532022782A2A6B
:4014400003D0079A00210A200BE0039A111D12680391002A10DA524243F00200079204900BE027463B780134303B092B03D800FB02320121F5E701B107923B782E2B1ED1B2
:401480007B782A2B0AD1039B02371A1D1B680392002BB8BF4FF0FF33059310E0002319460593781C0A2407463A780130303A092A03D804FB01210123F5E703B10591032234
:4014C0003978224800F0E6F940B14023CBEB000003FA00F0049B013718430490397806221B487E1C8DF8281000F0D4F988B1194B33B9039B073323F007030833039314E0B2
:4015000003AB00932A46144B04A94046AFF3008007E003AB00932A460F4B04A9404600F093F8B0F1FF3F824603D0099B5344099342E7AB895B0601D4099801E04FF0FF30D2
:401540001DB0BDE8F08F00BF3C1B0000421B0000461B000000000000C11200002DE9F04791461F460A698B6806469342B8BF1346C9F8003091F843200C46DDF8208012B18C
:401580000133C9F800302368990642BFD9F800300233C9F80030256815F0060510D104F1190A07E00123524639463046C04701301AD00135E368D9F800209B1A9D42F1DB92
:4015C00094F843302268003318BF012392060FD5E118302081F843005A1C94F845102244023382F8431003E04FF0FF30BDE8F08704F1430239463046C0470130F4D02268D2
:40160000D9F80050E36802F00602042A08BF5D1B2269A3680CBF25EAE57500259342C4BF9B1AED184FF000091A344D4509D00123224639463046C0470130D5D009F1010973
:40164000F3E70020BDE8F0872DE9F04317460A7E85B06E2A984606460C460C9B01F1430E00F0AE8011D8632A22D009D8002A00F0BB80582A40F0CA8081F84520834955E05C
:40168000642A1ED0692A1CD0C0E0732A00F0B08009D86F2A2ED0702A40F0B8800A6842F020020A603EE0752A24D0782A3AD0ADE01A6801F14205111D1960136884F8423073
:4016C000A8E021681A6811F0800F02D0111D196008E011F0400F02F10401196002D0B2F9003000E01368002B3CDA2D225B4284F8432037E021681A6811F0800F02D0111DDF
:40170000196007E011F0400F02F10401196001D0138800E01368227E5C496F2A14BF0A2208221BE078225A4984F845202268186812F0800F00F104051D6003D1550601D58A
:40174000038800E00368D00744BF42F0200222601BB9226822F0200222601022002084F8430001E049490A226568002DA56008DB206820F0040020602BB9002D7DD1754607
:401780000CE0002B79D07546B3FBF2F002FB1033CB5C05F8013D03460028F5D1082A0BD12368DA0708D5236962689A42DEBF302305F8013C05F1FF35C5EB0E0323612EE075
:4017C00008681A6810F0800F496903D0101D1860136808E010F0400F02F104001860136801D0198000E0196000232361754616E01A68111D1960156800216268284600F098
:4018000049F808B1401B6060636804E004F1420584F8422001232361002384F84330CDF800803B4603AA21463046FFF797FE013002D14FF0FF3026E023692A4639463046CC
:40184000C0470130F5D023689B0710D5002504F1190907E001234A4639463046C0470130E7D00135E368039A9B1A9D42F2DBE068039B9842B8BF184605E00B7804F14205E6
:4018800084F842308AE705B0BDE8F0834D1B00005E1B000010B5C9B202449042034605D01C7801308C42F8D1184610BD002010BD884210B501EB020301D8421E0BE09842B3
:4018C000FBD28118D21AD34204D013F8014D01F8014DF8E710BD994204D011F8014B02F8014FF8E710BD000038B50546002944D051F8043C0C1F002BB8BFE41800F0D4F8E4
:401900001E4A1368114613B96360146030E0A3420DD92268A018834201BF18685B681218226063600C6023E0A24203D813465A68002AF9D118681918A1420BD1216801449B
:4019400058188242196013D110685268014419605A600DE002D90C232B6009E021686018824201BF106852680918216062605C602846BDE8384000F098B838BD6081FF1F2B
:4019800070B5CD1C25F0030508350C2D38BF0C25002D064601DBA94202D90C23336046E000F082F8234B1C681A462146A1B10B685B1B0ED40B2B03D90B60CC18CD501EE09F
:4019C0008C420BBF63684B681360636018BF0C4615E00C464968E9E7174C23681BB9304600F052F820602946304600F04DF8431C18D0C41C24F00304A0420DD125603046A1
:401A000000F053F804F10B00231D20F00700C31A0ED05A42E25070BD211A304600F034F80130EBD10C233360304600F03EF8002070BD00BF6081FF1F5C81FF1FF8B5074646
:401A400015460E4621B91146BDE8F840FFF798BF1AB9FFF749FF2846F8BD00F027F885420ED929463846FFF78BFF044650B131462A46FFF7EDFB31463846FFF735FF01E0EE
:401A80003046F8BD2046F8BD38B5064C0023054608462360FEF77CFD431C02D1236803B12B6038BDCC81FF1F7047704751F8040C0028BEBF091851F8043CC01804387047B7
:401AC00000000000722E74656D70636E74203D2025780000722E746172676574203D202578000000722E636E74203D20257800002D2D25642D2D0000722E616E73203D2055
:401B00002564000000510040100040510040300000000140001000140140000800400140000A004C01400002005001402000000060520040DC0B004806004300232D302BEC
:401B40002000686C4C00656667454647003031323334353637383941424344454600303132333435363738396162636465660000F8B500BFF8BC08BC9E4670474D00000051
:401B80000D060000F8B500BFF8BC08BC9E46704729000000A81B0000C880FF1F70000000980000000000000000000000D081FF1F00000000000000000000000000000000CA
:401BC000000000000000000000000000000000003A1B0000000000000000000000000000000000000000000000000000000000000000000000000000000000000000000090
:401C000000000000000000000000000000000000D080FF1F000000000000000000000000000000000000000000000000000000000000000000000000000000000000000036
:401C40000000000000000000000000000000000000000000000000000000000000000000000000000000000000000000000000000000000000000000000000000000000064
:401C80000000000000000000000000000000000000000000000000000000000000000000000000000000000000000000000000000000000000000000000000000000000024
:401CC00000000000000000000000000000000000000000000000000000000000000000000000000000000000000000000000000000000000000000000000000000000000E4
:401D000000000000000000000000000000000000000000000000000000000000000000000000000000000000000000000000000000000000000000000000000000000000A3
:020000040003F7
:0200000480007A
:4000000001450040035200400564004004650040650001403F010140160301406A0401404E050140490601404D07014018090140640A0140510B0140650C01403B0D014081
:400040005E1401404B1501403E1601404B170140171901404B1A01404B1B0140034001400341014003420140044301400745014004470140094801400E490140044C01404B
:40008000074D01400C500140015101407E02100211027C40816F860F870F8B0D8C0D856F870F8A728B380111030404960668087F0D110F0810FE110D12011310151C1601FE
:4000C0001B1D1CA31E5C240E26F0270229012B042CC52E3A311D32FF33033E0440214105450E46B0470C481949FF4AFF4BFF4EF04F44500C580459045A045D015F0166C0CE
:400100006A406B0281208343841086AC88148C098ED09203930C94DC9622998C9B139E20A00CA1D1A271A30EA410A5D1A640A706AB08B01FB3C0B50FB6E0B730B988BA80AF
:40014000BB20BF04C002C640C9FFCA07CBFFCC40CD20CEF0CF05D008D40FD804D904DA04DB04DC11DD01DF05E040E1A8E240E3200020022804200711090A0A010B010E605F
:400180000F02110812121440162019041E401F4221082202234025402610272129042A102C402E202F60310232283410361037013B413E023F0242024330472048204B88A3
:4001C0004E804F025010520456205D905F0A6608670479807B027E08C0E6C2BDC435CAE6CCA7CE89D02CD208D6F0D860DE20660167809180938095189601970498109A0488
:400200009E089F0AA020A140A282A410A506A620A720AD84AF04B508EC08045B057F06040B010C080E01106C119612021368146C15C51601173A18371DA31E0F1F5C21FEC3
:400240002301290E2BF0300F347035FF38203F104035410249FF4AFF4BFF4DA04F0150185280580459045A045B045F016040628064406540668068406A806C406D206E8000
:400280008340850B8602870489408F10930F950C970299079D10A10CA201A301A720A920AD08AF01B002B120B30FB510B601B740BF51C035C102C52CC643C70EC81FC9FF60
:4002C000CAFFCBFFCDAFCE07CF01D018D280D804D904DA04DB04DD20DF01E040E280E440E540E680E840EA80EC40ED20EE8000080302050409080A440B02154016401740CF
:4003000018081AC41D401F02200425082604274A288029102C602F05304031083240330335403604372138283C883D203F024110431C47144B404D024F4654405648571087
:40034000728074028302840288408C028EC091809208934095189601970498119A059E089F0AA140A282A410A506A620A720AC21AE04AF40C025C20FC410CAF5CCFBCEF63F
:40038000D066D218E004E602EE0A00100401057308040A080DCF0E010F301210159E1760181C19941B601C011DFD1E1C1F02201C230F240426082A202D302E022FC9320184
:4003C00033FF3402363C3E043F04540F580459045B045F01860F887389018DAC8F5090FD91FA920294949576966099509BA09CCF9E30A1CCA330A430A6C9A930ABC0AC9E4E
:40040000AD01AE60B1F0B30EB4FFB701B988BE10D401D804D904DB04DD10DF010028048005140680084409060A010E4612221340148015011602171418041D101E221F4089
:400440002020210222082301271028442A402E802F4231023228348035103604370439103B403E4446044720580159805A085B205D015EA491D0924C9528960197089893E1
:400480009A459D10A140A286A313A430A516A620A728A810AC84AE04AF20B11AB404B514B701C0F6C2DDC4F5CA9DCC77CE5CD6FFE812EA04EE0291209290930895409602F6
:4004C000971099A09A089B309D509E449F42A30AA404A68CAB10AD40AE20B008B108B620B780E8C0EC6000020640084F0A100C411233147F170118731A0C1C03200824047A
:400500002701280C2B022C4C2E233102340F3501367C3AA04040410149FF4AFF4BFF4DA04F045018580459045A045C215D025F01604062C06440654066C068C06AC06CC0EA
:400540006EC084018505871A8A028B208C048D07911C920293039601991FA113A30CA604A91AAA04AB05B001B202B330B404B50FBE14C040C101C5D0C721C832C9FFCAFF8E
:40058000CBFFCDAFCE0FCF04D018D280D405D804D904DA04DB04DC02DD22DF01E040E2C0E440E540E6C0E8C0EAC0ECC0EEC0000801400280030804080540060408080A4611
:4005C0000EA00F201201131A171419A01A041C401F1421022210262027102B142C082F80320836213D883E204008420A4301460247014D01560257045A405B405C405D020C
:400600005E0874028104871088018E018F0690089120929095019624971099029A099B299C019D989E429F42A250A308A402A502A608A704AD40AF10B601B708C0EFC23F09
:40064000C46FCAA6CCA2CE70D099D6D0E010E47002040302040208080C1010021418181D1B041C181E051F0220022405261828202C1C2E012F013001321C330234023504F6
:400680003620370138223E503F044060410349FF4AFF4BFF4DA04F0450185405580459045A045B045C215D225F01604062C06440654066C068C06AC06CC06EC08201840FFC
:4006C000880E8A018C0E8E01910298099A069F01A004A402A806AB03B008B102B207B501BA28BE01C060C102C5D1C620C80BC9FFCAFFCBFFCDAFCE0FCF04D018D804D904C1
:40070000DA04DC21DD02DF01E040E2C0E440E540E6C0E8C0EAC0ECC0EEC000040180020103480518074A08100A040C010E020F14131A1418164118041A801B081D401E9087
:400740001F1020482408268427012B042C0231023280369038043A083B043E024110461049024A184E08511052105C405D015E0888048E1098089B20AC08B720C0FFC2F28F
:40078000C4FECA14CC39CE80D044D224D6D0EC1000400413060C08030A140C2010401103142015021701184019011B021E082215240A2614282029032C132E04302032401A
:4007C0003303340F361038083A203E444013410549FF4AFF4BFF4DA04F0150185280580459045A045B045C115F016040628064406540668068406A806C406D206E808205FF
:4008000094049B019C02AE02B201B404B501B602BE50C013C105C50CC643C72EC83DC9FFCAFFCBFFCDAFCE07CF01D018D40FD804D904DA04DB04DF05E040E280E440E54076
:40084000E680E840EA80EC40ED20EE80024603200640080809410A040B080E2210141281160219801A901B201E292020210826202804311832023720400242104304440219
:4008800047044BC04F4454205501564A57825C205D405E096608670471017F048020820284108720880C8A028B088D119140920493809680974098129A059D809E02A140C0
:4008C000A281A420A620A7AAA904AB40C01FC2AFC48FCA04CC27D05AD218D6F0D860DE20E008030407020F081A021F08210129082D012E01310132023302350436013708A2
:4009000039023F40580459045F0183018402872088028B1D8C308D028E04902C911C9210951C963C99109A019C309E089F10A104A202A308A420A604A740A81CA941AD0489
:40094000AF08B101B201B340B402B53CB63CB702BE10BF45D40FD804D904DB04DF01000801200202082009060A010C2012281301160219101A011B041D041E021F04200AF7
:4009800021152480251426402740282029602B542F863045310232283740380439A03B013E083F424080410149404A025885591088018A088E40900491C092049381948018
:4009C00095289601970898529A059D84A142A28AA311A424A514A660A728B010B602C007C24FC48ECABFCC1FCEDFD60FE020E840EA02EE0A024003408F40912092909308CB
:400A000095409602971099A09A089B309D509E049F42A30AA404A68CB240E090EA02EC80EE0A0148032605E00F18113813C1171819E01D901F22251829182A012F1831E0A1
:400A400032013318350437033F4056025710580459045B045C105D105F018601870288018B02920196029A02AA04AF01B001B301B402B502B604BE11BF10C064C102C203D5
:400A8000C401C50CC70EC811C9FFCAFFCBFFCC62CDA0CEF0CF41D00CD418D804D904DA04DB04DC20DD11DF01E640E702E910EA30EB10ED10EE10EF12042007200D180F800E
:400AC0001320171018201D401E882018218022012518260829A02A082F02308032913308380239043A403E303F08458046684D204F0856045A805C026709680169046A24DD
:400B00006B08711073128012848088018A448B088C018D508F4191209290930895409602971099A09A489B309D509E049F02A30AA404A68CC060C270C442CA1ECC0FCE6B0F
:400B4000D0F0D220D688D830E2E0E440E6A033813644CCF09F01A644A7809F01A644A7809F01A644A790B71052205C408A208C40D404D604E00608080B040F40C20E8A0138
:400B80009C08A604A710AE40AF81B408EA40EE5008080A020F24191081108204870496029C08A604A710C2F0C640E0408801AC08AF44E001128074018E80A001C408DE04EA
:400BC000E20200070101080309010A070C070E06100711011A031C071D0100EA80800000400000008000408080008000000000004000000000000000C0000000000B0B00B4
:400C0000000000000003030003000000F0000000000000000000000000000000000000000000000000000000000000000000000000000000000000000000000000000000BB
:400C40000000000000000000000000000000000000000000000000000000000000000000000000000000000000000000000000000000000000000000000000000000000074
:400C80000000000000000000000000000000000000000000000000000000000000000000000000000000000000000000000000000000000000000000000000000000000034
:400CC00000000000000000000000000000000000000000000000000000000000000000000000000000000000000000000000000000000000000000000000000000000000F4
:400D000000000000000000000000000000000000000000000000000000000000000000000000000000000000000000000000000000000000000000000000000000000000B3
:0200000490006A
:0400000000004005B7
:0200000490105A
:04000000BC90ACAF55
:0200000490303A
:020000008B383B
:0200000490402A
:4000000000000000000000000000000000000000000000000000000000000000000000000000000000000000000000000000000000000000000000000000000000000000C0
:400040000000000000000000000000000000000000000000000000000000000000000000000000000000000000000000000000000000000000000000000000000000000080
:400080000000000000000000000000000000000000000000000000000000000000000000000000000000000000000000000000000000000000000000000000000000000040
:4000C0000000000000000000000000000000000000000000000000000000000000000000000000000000000000000000000000000000000000000000000000000000000000
:0200000490501A
:0C00000000012E16106900012E249BA1A7
:00000001FF