:4000000000800020110000001D0400001D04000008B5044B1A6803F53F5302331A6000F005FA00BFFA46004010B5054C237833B9044B13B10448AFF300800123237010BD36
:400040006081FF1F00000000A0240000084B10B51BB108490848AFF300800848036803B910BD074B002BFBD0BDE81040184700BF000000006481FF1FA0240000C880FF1F4A
:400080000000000070B51A4A138801331BB21380002000F02DFA0025164B1D60164B188800B2C0F500400C3001F0D0FF0446134B1860294602F01EF8114E316801F012FF19
:4000C000054630600F4B1C600F49204602F012F804460E49284602F00DF80146204601F001FF0B4C0146206801F0FCFE206070BD9081FF1FA081FF1FCC80FF1FA881FF1F14
:400100009C81FF1FA481FF1F000070420000FA437C81FF1F131243544B1CC254881C704770B592B062B601F089FE0121002000F0B5FD00F031FB00F067FE002411940194F9
:400140003C22214602A802F0A2F91B4B1C8000F0FDF91A4800F098FC194B1E68304602F019F91190174C47F6FF752580304602F037F980B201F010FE00F0B2F92388181AB6
:4001800000B220800021084600F014FB208880B200F02EFB2388ED1A2DB2658012A8732300F8443D228812B20121FFF7B3FF65238DF80C30D0E700BF9081FF1F85000000A2
:4001C0007C81FF1FCC80FF1FFEE700BFF0B40022174611E050F82760F3B226F0FF0608E001EB420511F812406D78A5550132013BDBB2002BF4D10137152FEBD9F0BC70474F
:40020000064B1B78DBB203F00701054A11701B09013213704422034B1A707047CF0100496E5800407658004008B50A46002102F02EF908BD38B507222A4B1A8018232A4AA6
:40024000137040F2DF11023211800232137042F20F72264B1A801B2202331A70062203F276231A705222A3F580731A70204B1B78DBB2204A13704FF4E1621F4B1A8041F2A3
:400280005122023B1A80002419250CE01B4B1B7803F0010343EA440404F003044FF4F07001F0DAFD013D0DB1032CEFD115B90320FFF78AFF124A4FF48073138007231370AE
:4002C000002310490B7048200231087013700532137002220C4B1A700C4A137843F00703137038BD8040004082400040884000400F010049A1460040224200402542004047
:40030000044000400640004001400040A243004008B502F0B1F808BD38B572B62D4A137843F00403137000240CE02B4D630019194A0011462A44084691882858FFF774FFA0
:400340000134E4B2072CF0D924494FF09040FFF73DFF234A234B1A60234A137843F0020313701032137843F0020313701F4C237843F040032370A2F58632513A137843F0D1
:40038000100313700A221A491A48FFF7C1FF082219491A48FFF7BCFF082219491948FFF7B7FF082218491948FFF7B2FF184A137843F008031370174D01232B70FFF73AFF35
:4003C00081232B70FFF71CFF0E2221461248FFF79FFF38BDE8460040A42400005800004804040044D816014003500140A0430040EC030048F0510040F8030048125100408D
:40040000000400482251004008040048325100402243004000480040B043004008B501F0FFFF03680C2B00D1FEE7FEE708B5104E104D16E029686B68AC68002204E051F828
:40044000040B43F8040B0432A242F8D1E868002203E0002143F8041B04328242F9D11035013E002EE6D101F0E1FFFFF759FEFEE7010000006C26000008B5104A104B1A60C1
:40048000104A136843F40073136000230AE0032B03D80D4A52F8231000E00C490C4A42F8231001332F2BF2D90A4B1A780A4B1A70074A0A4B1A60FFF72FFF08BD0004FA053D
:4004C0000CED00E014ED00E0000000001D0400000080FF1FBC760040C080FF1F08ED00E008B500F0D1F9A0F5004000B208BD00BF08B5002803DB80B280F4004002E0A0F53C
:40050000004080B200F0BAF908BD00BF024B187800F00F00704700BF66650040014B1870704700BF8665004008B50F20FFF7F6FFFFF7ECFF01F098FC034A137843F01003F5
:40054000137001F095FC08BD9665004008B500F0EDF94FF4004000F091F9044B1B7813B90122024B1A70FFF7DFFF08BD8081FF1F10B50B4C237803F09F032370237803F019
:40058000F00323702378184340F010002070012000F0F2F9237803F0EF03237010BD00BF2051004038B505460E4C237843F020032370237803F0BF032370002000F0DCF9C5
:4005C000237803F0F003237023781D4345F010052570012000F0D0F9237803F0EF03237038BD00BF2051004070B5354B1A7802F08002D2B21A7033490A7802F0F00242F0EE
:400600000F020A7001310A7802F0F0020A7001310A7802F0F0020A701A7802F0DF021A701A7842F040021A704FF4CA76002000F0A3F9234D2B7843F010032B70012000F058
:400640009BF9214B1C78E4B22B7803F0EF032B70002000F091F904F00804E4B22B7843F010032B70012000F087F92B7803F0EF032B7014B90A2000F07FF9013E0CB1002E3C
:40068000D4D10F4A137803F0BF031370137803F08003DBB213700232137803F0F00313700132137803F0F00343F00F0313700132137803F0F00343F00F03137070BD00BF7C
:4006C00020510040225100402151004010B50446FFF78AFF2009FFF765FF04F00F00FFF761FF10BD38B505460078012404E0FFF7EDFF285D0134E4B20028F8D138BD00BF1D
:4007000010B50446FFF770FF2009FFF731FF04F00F00FFF72DFF10BD08B5282000F016F90320FFF725FF052000F010F90320FFF71FFF0F2000F00AF90320FFF719FF0120FA
:4007400000F004F90220FFF713FF052000F0FEF80620FFF7D5FF0E20FFF7D2FF2C20FFF7CFFF0820FFF7CCFF0120FFF7C9FF0C20FFF7C6FF0320FFF7C3FF052000F0E6F8E5
:4007800008BD00BF08B50C20FFF7BAFF0122014B1A7008BD8181FF1F08B5054B5B7823B9FFF7BAFF0122024B5A70FFF7EBFF08BD8181FF1F08B5032819D8DFE800F002073C
:4007C0000D1381F08000FFF79BFF08BDA1F14000C0B2FFF795FF08BDA1F16C00C0B2FFF78FFF08BDA1F12C00C0B2FFF789FF08BD10B584B000238DF80E30092211E0144B7A
:40080000A3FB0013DB081C4603EB83035900431ADBB2303304A9114401F80C3C2046013AD2B20928EBD80A4BA3FB0013DB0803EB83035900431ADBB2303304A9114401F84E
:400840000C3C01AB9818FFF74DFF04B010BD00BFCDCCCCCC024A137843F080031370704774640040014B1870704700BF87650040014B1878704700BF67650040014B18808A
:40088000704700BF0C680040024B1B78024B188880B27047066400408C680040014B188880B270478C680040014B1880704700BF4C680040014B1880704700BF6C680040B5
:4008C00008B501E0FFF7EAFFFFF7D2FF10F0400FF8D108BD08B5134B1A7802F0F8021A701A7802F0FC021A70FFF7EAFF4FF40040FFF7DAFF4FF40040FFF7C0FF0020FFF729
:40090000B1FFFFF7B5FF4FF40040FFF7D3FF01F0ABFA054A137843F01003137001F0A8FA08BD00BF746400409765004008B5054B1B7823B9FFF7CEFF0122024B1A70FFF73F
:4009400089FF08BD8381FF1F01BE704710B5044605E0084B186801F07FFAA4F50044B4F5004FF6D8034B586800FB04F001F074FA10BD00BFD080FF1F08B5034B1B7A00FBCD
:4009800003F001F069FA08BDD080FF1F70B504460E46074B1D681F2802D90020FFF7D4FF04F01F04103455F8240045F8246070BD08ED00E038B504460D46072902D90020D4
:4009C000FFF7C2FF1F2C02D90020FFF7BDFF04F01F0000F1604000F564406D01EDB2057038BD00BF134B1B78DBB20360124A127843EA02230360114A127843EA024303609F
:400A00000F4A127843EA026303600E4B1B78DBB243600D4A127843EA022343600B4A127843EA024343600A4A127843EA02634360704700BF0301004904010049EC46004062
:400A40000201004901010049000100490501004906010049014B1B68D864704708ED00E04001C0B2014B1870704700BF03E400E00822014B1A60704700E100E00822014BBD
:400A80001A60704780E100E010B50446FFF7F6FF2046FFF7DFFF0720FFF7E2FFFFF7E8FF10BD00BFF8B501F0DFF90746404A137843F0010313701032137843F00103137010
:400AC00001263C4B1E700225943B1D7002F5E2521B32137803F07F0313700020FFF74CFF354C237803F0F9032370344A137803F0DF0313702378334323703046FFF73CFF91
:400B00002820FFF739FF2E4B1A7802F07F021A701A7802F0BF021A7023782B4323702846FFF72AFF237843F0040323700024254B1C7001331C70384601F09AF90721172096
:400B4000FFF738FF20491720FFF720FF07211820FFF730FF1D491820FFF718FF07211520FFF728FF1A491520FFF710FF07212046FFF720FF17492046FFF708FF0721304648
:400B8000FFF718FF14493046FFF700FF07212846FFF710FF11492846FFF7F8FE07210C20FFF708FF0E490C20FFF7F0FEF8BD00BFA54300409D6000409443004012600040B7
:400BC000F85100408460004009140000F1110000051400006513000095130000C91300001114000008B5214B18700023204A1370204A1370204A1370204A1370204A13707A
:400C0000204A1370204A1370204B4FF400021A604FF080721A604FF400121A6001221A6002221A6004221A6011B1012906D00BE0174A137803F0FE0313700AE0144A137878
:400C400043F00103137004E0114A137843F00103137003220F4B1A708022203B1A70012001F0FAF804220C4B1A7008BDC581FF1FC881FF1FE481FF1FE781FF1FDC81FF1F87
:400C8000E681FF1FE981FF1FC481FF1F00E100E009600040286000401260004038B504460D46064B1B7823B9FFF7FCFE0122034B1A7029462046FFF795FF38BD8481FF1F34
:400CC00000230A4A13700A4A13700A4A13700A4A13700A4A13700A4A13700A4A13700322094B1A708022203B1A707047C881FF1FE481FF1FE781FF1FDC81FF1FE681FF1F3F
:400D0000E981FF1FC481FF1F28600040431EDBB2072B0BD8420002449300054A134400225A705A79D2B20001024B1A54704700BFEC81FF1FFE5F004010B4FF2400230EE0A7
:400D4000094AD25C02EB42029100084A11448A7AD2B2824201D11C4602230133DBB2012BEED9204610BC7047B481FF1FEC81FF1F10B5204C2079FFF7DFFF237813F0800F9E
:400D80000ED06378DBB2212B2FD11B4B07221A80C0EBC000194A1044586000F097FA10BD144B5B78DBB2202B02D0222B10D01EE0114A07231380C0EBC00310490B44536068
:400DC0000F4A135C43F00103135400F0A7FA10BD084B9B780B4A22F81030094A135C43F00203135400F030F910BD002010BD002010BD00BF00600040D081FF1FE080FF1FAD
:400E0000AC81FF1FC081FF1F10B500241F4B1C701F4B1C705C700AE01E4B185DC0B2431EDBB2072B01D8FFF771FF0134E4B2012CF2D9194B1B7813F0FF0F1AD0154B1B7826
:400E400013F0FF0F17D0154B1B7813F0FF0F14D0114B1B78DBB2082B11D80E4B1B78DBB2082B0ED80D4B1B78DBB2082B0BD8002010BD012010BD012010BD012010BD012002
:400E800010BD012010BD012010BD00BF8581FF1FAC81FF1FB881FF1FB081FF1FB481FF1FC37803F0030390F9020000280FDA032B06D002F001030B48C15442F001020EE00D
:400EC000C2F380030848C15442F0040207E0032B05D0C2F340030548C15442F002021046704700BFB081FF1FB481FF1FB881FF1F1D4B19781D4A13889BB20B449BB2138067
:400F000000220FE01A494B681B78DBB2194883544B6801334B600132D2B20B889BB2013B9BB20B80124B1B889BB20BB1072AE9D90D4B1B78DBB2082B00D05AB10E490B7899
:400F400083F080030B700F210C4B197002210C4B197004E0022309490B7009490B70094B1A70014B1A707047C481FF1FC681FF1FD081FF1F006000405A82FF1FE581FF1F8A
:400F8000C881FF1FE881FF1F0222074B1A708022064B1A700F22064B1A700023054A1370054A137001207047C881FF1F5A82FF1FE581FF1FC481FF1FE881FF1F08B5FFF799
:400FC00097FF08BD10B4194B197801F00F010239C9B2174A13889BB20B449BB21380002011E0144A5468144B1B5CDBB223705368013353600130C0B20139C9B213889BB2AB
:40100000013B9BB213800B4B1B889BB20BB10029E7D10A4B19700A4A137883F0800313700B22084B1A7010BC704700BF29600040C681FF1FD081FF1F00600040E881FF1F6B
:401040005A82FF1FE581FF1F0623064A1370064A13708022054B1A700022054B1A700120704700BFC881FF1FE581FF1F5A82FF1FE881FF1F064B9B6843B1054B9A6810708E
:401080009A6804490988518000229A60704700BFD081FF1FC681FF1F08B5134B1A78D2B21A701B78DBB213F0800F02D00F4A137008BD0220FFF7DEFF0D4B1B7803F0600303
:4010C000202B05D0402B06D043B900F093FC06E000F0D2FE03E000F037FE00E0002010B90322024B1A7008BD28600040E581FF1F0060004008B5094B1978094A13889BB213
:401100000B449BB213800022064B1A700120FFF7B1FF0322044B1A7008BD00BFC481FF1FC681FF1FC881FF1FE581FF1F08B50B4B1B78DBB2042B06D0062B07D0022B0BD13E
:40114000FFF7D8FF08BDFFF73DFF08BD0320FFF791FF0322024B1A7008BD00BFC881FF1FE581FF1F08B50022044B1A700120FFF781FF0322024B1A7008BD00BFC881FF1F9C
:40118000E581FF1F08B50B4B1B7813F0FF0F07D0084A137843F0800307490B70002313700022064B1A700120FFF764FF0322044B1A7008BDE681FF1F08600040C881FF1F4B
:4011C000E581FF1F08B5094B1B78DBB2042B06D0062B07D0022B07D1FFF7F0FE08BDFFF7C1FF08BDFFF7CEFF08BD00BFC881FF1F08B5284B1B78DBB213F0100F48D013F0C9
:40120000800F0CD003F00F03012B16D1FFF744FF214B1B7813F0800F11D1012312E013F0400F03D0FFF7CEFF01230BE013F0200F07D0FFF77BFF012304E0002302E00023C9
:4012400000E0002323B3134B1B7813F0800F1FD1124B1B78124A12781343124A13701278D2B2934214D10C4B1B78DBB2094A127812F0800F07D1084B1B78DBB2054A13704D
:40128000137803F00F03044A1278D2B29342EAD108BD00BF28600040E581FF1F5A82FF1FE881FF1F296000400022064B1A80064B9B682BB1044A916800230B7092685380A9
:4012C000704700BFC681FF1FD081FF1F08B50F4B1B889BB213B9FFF757FE15E002220C4B1A7000220B4B1A70FFF7DEFF0A4AD179937943EA0123054A128892B2934201D2E7
:40130000024A1380FFF7F4FD012008BDD081FF1FC881FF1F5A82FF1F0060004008B504220B4B1A7080220B4B1A70FFF7BDFF0A4AD179937943EA0123084A128892B293429A
:4013400001D2064A13800B22054B1A70012008BDC881FF1F5A82FF1F00600040D081FF1FE581FF1F0122094B1A700F3B9B7C084B1B7B03F00303934204D0054AD37B83F0D9
:401380008003D3730122024B5A7370470B600040EC81FF1F02220A4B1A700F3B93F82230084B1B7E03F00303012B04D0054AD37E83F08003D3760122024B5A76704700BF96
:4013C0000B600040EC81FF1F04220C4B1A700F3B93F832300A4B93F8243003F00303012B06D0074A92F8273083F0800382F827300122034B83F82520704700BF0B600040FF
:40140000EC81FF1F704700BF08B5FFF759FC08BD08B500F0A5FC08BD70B588B0054603AC174E0FCE0FC43368237035B322232B7003236B7001A8FFF7D5FA002402231AE0B7
:4014400008AA224412F81C2C08A901EB121111F8141CE954581C00212954981C02F00F0208AE324412F8142C2A54DA1CA9540134E4B20433DBB2212BE2D908B070BD00BFE2
:40148000D424000010B401233EE019461A010C242148845403EB4300820020480244527912F0FF0F13D003EB430082001B480244127912F0800F04D01801194A0244947012
:4014C0000AE01801164A02440820907004E01801134A0244802090704800084482000F480244D488E4B208010B4901448C71D088C0F30720C871D088C0B20871D288C2F3DA
:4015000007224A710133DBB2082BBED9FF22054B1A7010BC704700BF70600040EC81FF1FFC5F00400A600040074B1A78074B03EBC2035B681A7C824204D9C00010301844E0
:401540004068704700207047C581FF1FE8240000F8B5404B1B7813F0FF0F79D03D4B18780138C0B2FFF7E0FF047AC2683A4B1878C0B200236AE01178884264D13749095CFF
:40158000C9B25578A9425ED1917801F07F01D67806F00306DFF8C8E04D000D44AF000EEB07054FF0000C85F803C092F802C085F804C092F803C00EF807C097882F8192F9A5
:4015C0000250002D0DDA012E01D1072700E00D274E000E44B500224E35446F7101266E700CE0012E01D1052700E009274E000E44B5001B4E35446F7100266E70DFF868E0BC
:401600000F010EEB07060125B57001FA05F529448D00134929440D89C5F307250EF807500D89EDB27570CE88F6B20E4D3D44AE71CE88C6F30726EE71CE88F6B22E71C9881E
:40164000C1F30721697108320133DBB2A34292D3F8BD00BFE781FF1FDC81FF1F5882FF1FEC81FF1F70600040FC5F0040034B1A78034B03EBC2035868704700BFC581FF1F51
:40168000E824000008B5084B18780138C0B2FFF74BFF30B142681279023200EBC203586808BD002008BD00BFE781FF1F2DE9F047002310E0724D5900CA189600AC19002213
:4016C000AA55A270E2702281A272627034462C4462710133DBB2082BECD940B90AE000226849CA546849CA540133DBB200E00023012BF4D9654B1B7813F0FF0F00F0BD80A7
:40170000624B18780138C0B2FFF70EFF80464368DB7913F0400F05D05D4A137843F00103137004E05A4A137803F0FE03137098F808704FF0000A01266FE0D8F80C50002445
:4017400067E0AB7803F07F039E425FD1314606EB460083004A4803441B899BB2A888834206D206EB460E4FEA8E03454A134418812B784448C35CDBB26878834246D195F800
:4017800002C0DFF8FCE04B000B4498000EEB000383F804C0EB780EF80030EB7803F0030395F90200002813DA012B02D14FF0070901E04FF00D09DFF8C8E04B0003EB010C64
:4017C0004FEA8C00704480F805900121417012E0012B02D14FF0050901E04FF00909DFF8A0E04B0003EB010C4FEA8C00704480F8059000214170AB790A2B01D0022B05D1FE
:40180000524631462846FFF74BFB824608350134E4B2BC4295D30136F6B2082E8DD9D8F80C0000220CE0837803F07F0310F8084B03EB43039900124B19448C720132D2B24D
:40184000BA42F0D3FFF71EFF124B1860002301210FE00B4D4A00501884002C44E380228992B213449BB203F0010213449BB20131C9B20829EDD9FFF705FEBDE8F08700BF87
:40188000EC81FF1F5882FF1FCC81FF1FE781FF1FE981FF1FE081FF1F08B5154B1B7903F07F035A1ED2B2072A20D8590019448A0010490A44917841F0010191700021D170DC
:4018C000517841F002015170127912F0800F05D01B01094A1A448D23937004E01B01064A1A4489239370FFF7AFFB08BD002008BD00600040EC81FF1FFC5F0040274B1B7946
:4019000003F07F035A1ED2B2072A44D810B5590019448A0022490A44917801F0FE0191700021D1701F4C1801215C01F07F012154517801F0FD015170127912F0800F13D070
:4019400003EB43018A0016490A445278D2B2012A04D1224602440C23937019E01B01114A1A440D23937013E003EB43018A000C490A445278D2B2012A05D11B01094A1A4461
:401980000823937004E01B01064A1A4409239370FFF75AFB10BD0020704700BF00600040EC81FF1FFC5F004010B50E4B1C79E4B20D4B18780138C0B2FFF7B6FD43681B79E4
:4019C0009C4201D9022C0AD8084A135DDBB208490B55044B9B78DBB21355012010BD002010BD00BF00600040E781FF1F5882FF1FCC81FF1F10B59C4B1B78DBB200219B4AD3
:401A0000118013F0800F00F0AD80974A5278D2B20A2A00F27481DFE812F06900720172017201720172010B007201920072019A008D4BDB78DBB2012B09D1FFF717FE42681B
:401A40008A4B5A6012221A80FFF740FC10BD864BDB78DBB2022B13D1834B9878FFF764FD002800F04E814268804B5A605A68D1785A68927842EA01221A80FFF727FC10BD57
:401A8000794BDB78DBB2032B05D02CE00A7811440133DBB201E000237549734A9278D2B2934203D20A7812F0FF0FEFD16E4B9B7813F0FF0F0BD06C4B9B78DBB26D4A127C7E
:401AC000934204D16C4C2046FFF7A6FC21460B7813F0FF0F00F017810B78644A13805160FFF7F4FB10BD00F0C7F910BD13F0030317D0022B40F009815C490B805A4B1B791F
:401B000003F07F0303EB43039A005C4B1A449278D2B25B4B1A7000225A704B60FFF7D6FB10BD524902230B80564B1A78D2B2544B1A7000225A704B60FFF7C8FB10BD4B4B96
:401B400001221A80504A5A60FFF7C0FB10BD474A01231380444B1B794C490B445360FFF7B5FB10BD404A5278013A0A2A00F2CF80DFE812F04C00CD009800CD000B00CD003E
:401B8000CD00CD001300CD003000374B9B78DBB23F4A1370FFF758FA10BD334B9B7803F0FF041BB1601EC0B2FFF7BEFC04B110B9002C40F0AE80344B1B78DBB29C4206D0EA
:401BC000314B1C700120334B1870FFF76FFDFFF73BFA10BDFFF7E8FE002800F09C80224A1379DBB21279D2B22B490A702B4AD25CD2B22649CB5CDBB29A4204D00122254B3D
:401C00001A70FFF7A5FCFFF71FFA10BD03F00303012B17D04BB1022B7FD1134B9B7813F0FF0F7CD1FFF76AFE10BD0F4B9B78DBB2012B76D1134A137803F0FD031370FFF767
:401C400003FA10BD084B1B79DBB2012B6BD8064B98781B79DBB21249CA5C22EA0002CA54FFF7F2F910BD00BF00600040D081FF1F50250000342600006082FF1FEC81FF1FB2
:401C80008881FF1FE981FF1FE781FF1F5882FF1FE681FF1FE481FF1FDC81FF1FCC81FF1F5C82FF1F03F00303012B17D04BB1022B3BD1224B9B7813F0FF0F38D1FFF7ECFD53
:401CC00010BD1E4B9B78DBB2012B32D11C4A137843F002031370FFF7B7F910BD174B1B79DBB2012B27D8154B98781B79DBB21549CA5C22EA0002CA54FFF7A6F910BD00204F
:401D000010BD002010BD002010BD002010BD002010BD002010BD002010BD002010BD002010BD002010BD002010BD002010BD002010BD002010BD002010BD00BF0060004081
:401D4000E981FF1F5C82FF1F044B1B7813F0800F01D0024B5B780020704700BF00600040024B1878C0F38010704700BF8F450040024A137843F080031370704775650040B9
:401D8000014B1880704700BF086A0040014B1880704700BF886A0040014B1880704700BF486A0040014B1870704700BF85650040014B1878704700BF65650040014B188883
:401DC00080B27047A86A004008B501E0FFF7F6FFFFF7EEFF10F0100FF8D108BD10B5154A137803F0C00343F0090313701F32137843F001031370104C237843F00103237011
:401E000040F2E730FFF7BCFF40F2E730FFF7BEFF0020FFF7C1FF0020FFF7C4FF00F024F8237843F01003237000F022F8FFF7CCFF10BD00BF756500409565004008B5054BC5
:401E40001B7823B9FFF7CAFF0122024B1A70FFF78FFF08BD8A81FF1F0230800803D000BF01380046FCD17047EFF3108072B6704780F31088704700BF08B5144B1B7803F005
:401E80000303012B02D0022B04D00FE00F4B1B79DBB20CE00D4B1B7903F07F0303EB43039A000B4B1A44937ADBB200E00023022B07D8084A1268D35C022B04D1FEF758FFF2
:401EC00008BD002008BD002008BD00BF00600040EC81FF1FE081FF1F80F0004002E000BF81F0004142001FBF5FEA410392EA030F7FEA226C7FEA236C6AD04FEA1262D2EB19
:401F00001363C1BFD218414048404140B8BF5B42192B88BF704710F0004F40F4000020F07F4018BF404211F0004F41F4000121F07F4118BF494292EA030F3FD0A2F101024A
:401F400041FA03FC10EB0C00C3F1200301FA03F100F0004302D5494260EB4000B0F5000F13D3B0F1807F06D340084FEA310102F10102FE2A51D2B1F1004F40EBC25008BF3E
:401F800020F0010040EA03007047490040EB000010F4000FA2F10102EDD1B0FA80FCACF1080CB2EB0C0200FA0CF0AABF00EBC25052421843BCBFD0401843704792F0000F56
:401FC00081F4000106BF80F400000132013BB5E74FEA41037FEA226C18BF7FEA236C21D092EA030F04D092F0000F08BF0846704790EA010F1CBF0020704712F07F4F04D153
:40200000400028BF40F00040704712F100723CBF00F50000704700F0004343F0FE4040F4000070477FEA226216BF08467FEA23630146420206BF5FEA412390EA010F40F4ED
:40204000800070474FF0000304E000BF10F0004348BF40425FEA000C08BF704743F0964301464FF000001CE050EA010208BF70474FF000030AE000BF50EA010208BF7047B6
:4020800011F0004302D5404261EB41015FEA010C02BF84460146002043F0B64308BFA3F18053A3F50003BCFA8CF2083AA3EBC25310DB01FA02FC634400FA02FCC2F1200247
:4020C000BCF1004F20FA02F243EB020008BF20F00100704702F1200201FA02FCC2F1200250EA4C0021FA02F243EB020008BF20EADC7070474FF0FF0C1CEAD0521EBF1CEA46
:40210000D15392EA0C0F93EA0C0F6FD01A4480EA010C400218BF5FEA41211ED04FF0006343EA501043EA5111A0FB01310CF00040B1F5000F3EBF490041EAD3715B0040EAD0
:40214000010062F17F02FD2A1DD8B3F1004F40EBC25008BF20F00100704790F0000F0CF0004C08BF49024CEA502040EA51207F3AC2BFD2F1FF0340EAC250704740F400005F
:402180004FF00003013A5DDC12F1190FDCBF00F000407047C2F10002410021FA02F1C2F1200200FA02FC5FEA310040F1000053EA4C0308BF20EADC70704792F0000F00F05F
:4021C000004C02BF400010F4000F013AF9D040EA0C0093F0000F01F0004C02BF490011F4000F013BF9D041EA0C018FE70CEAD15392EA0C0F18BF93EA0C0F0AD030F0004C3F
:4022000018BF31F0004CD8D180EA010000F00040704790F0000F17BF90F0004F084691F0000F91F0004F14D092EA0C0F01D142020FD193EA0C0F03D14B0218BF084608D155
:4022400080EA010000F0004040F0FE4040F40000704740F0FE4040F4400070474FF0FF0C1CEAD0521EBF1CEAD15392EA0C0F93EA0C0F69D0A2EB030280EA010C49024FEA63
:40228000402037D04FF0805343EA111143EA10130CF000408B4238BF5B0042F17D024FF4000C8B4224BF5B1A40EA0C00B3EB510F24BFA3EB510340EA5C00B3EB910F24BFE5
:4022C000A3EB910340EA9C00B3EBD10F24BFA3EBD10340EADC001B0118BF5FEA1C1CE0D1FD2A3FF650AF8B4240EBC25008BF20F0010070470CF0004C4CEA50207F32C2BFF4
:40230000D2F1FF0340EAC250704740F400004FF00003013A37E792F0000F00F0004C02BF400010F4000F013AF9D040EA0C0093F0000F01F0004C02BF490011F4000F013BD2
:40234000F9D041EA0C0195E70CEAD15392EA0C0F08D142027FF47DAF93EA0C0F7FF470AF084676E793EA0C0F04D14B023FF44CAF08466EE730F0004C18BF31F0004CCAD1C8
:4023800030F000427FF45CAF31F000437FF43CAF5FE700BF4FEA4002B2F1FE4F0FD34FF09E03B3EB12620DD94FEA002343F0004310F0004F23FA02F018BF404270474FF0D2
:4023C0000000704712F1610F01D1420205D110F0004008BF6FF0004070474FF00000704742000ED2B2F1FE4F0BD34FF09E03B3EB126209D44FEA002343F0004323FA02F0D4
:4024000070474FF00000704712F1610F01D1420202D14FF0FF3070474FF00000704700BF014B1868704700BF5C81FF1F0E4B70B51E460E4C0025E41AA410A54204D056F860
:40244000253098470135F8E700F0FEF8084B094C1E46E41AA4100025A54204D056F8253098470135F8E770BD5426000054260000542600005C26000010B5431E0A44914294
:4024800004D011F8014B03F8014FF8E710BD03460244934202D003F8011BFAE77047000000000000005100401000405100403000C05100401000000001400010001401406E
:4024C000000800400140000A004C01400002005001402000303132333435363738394142434445460000000001000000F024000001000000342600000000000000000000F7
:40250000010000000825000001000000F02500000300000034250000000000000000000000000000000000000000000030250000020A000000008103080002000100820287
:4025400040000A000100030240000A0002030000040309042C0343007900700072006500730073002000530065006D00690063006F006E0064007500630074006F00720011
:40258000100355005300420055004100520054003803430044004300200043006F006D006D0075006E00690063006100740069006F006E00200049006E0074006500720045
:4025C0006600610063006500260343004400430020004400610074006100200049006E007400650072006600610063006500000009024300020101803209040000010202F8
:402600000103052400100104240202052406000105240100010705810308000A09040100020A0000040705820240000007050302400000001201000202000008B40432F2F9
:402640000100010280014300F8B500BFF8BC08BC9E4670474D00000079040000F8B500BFF8BC08BC9E4670472900000080260000C880FF1F980000002801000000000000D4
:4026800000000000FFFFFFFF0000E02EC05D00001800000000366E0100C2010000000800C201000000080000A12000000000020000000000000000000000000000000000DD
:4026C000000000000000000000000000000000000000000046260000000000000000000000000000000000000000000000000000000000000000000000000000000000006E
:402700000000000000000000000000000000000000000000FC80FF1F00000000000000000000000000000000000000000000000000000000000000000000000000000000FF
:402740000000000000000000000000000000000000000000000000000000000000000000000000000000000000000000000000000000000000000000000000000000000059
:402780000000000000000000000000000000000000000000000000000000000000000000000000000000000000000000000000000000000000000000000000000000000019
:4027C00000000000000000000000000000000000000000000000000000000000000000000000000000000000000000000000000000000000000000000000000000000000D9
:402800000000000000000000000000000000000000000000000000000000000000000000000000000000000000000000000000000000000000000000000000000000000098
:020000040003F7
:0200000480007A
:4000000001450040025200400365004036040140240501404F0601402D0701403F140140211501402C1601403817014002190140034001400341014003420140034301407E
:40004000044701400748014009490140024C014004500140015101407E0218027C40850D860F876F00800214040406F008B409FE0A400B011203130114C415C51610173AA8
:400080001801190E1BF01D961F682070217F24C4262029A32A082B5C2E01300C32F033FF340236013E403F045280580459045B045F01807784CC863194AC965298FB9A044A
:4000C000A050A2AFA838AAC1B20FB4F0D804DF01011002C003200502061009080A440D080E08104212181640171019811A441B441D081E081F102208284029022A102B04C6
:4001000031093280333039103B207002C03EC26EC45FCA05CC0FCE044056410249FF4AFF4BFF4DA04F0150185A045F016040628064406540668068406A806C406D206E800C
:40014000804084108620881C89FD8A208B028E809077947A959E976099949A709B609D309FC9A173A40CA640A70FA801A9CFAB30AC01B00EB1FFB2F0B401B822BE10BF013A
:40018000C052C103C50EC6C4C723C83DC9FFCAFFCBFFCDAFCE07CF01D018D804D904DA04DF01E040E280E440E540E680E840EA80EC40ED20EE8000800288032008100A4049
:4001C0000B20100A12101804190A1A501B1020802810290A2A182B043108328833203B2040044210460849844FA050CA522153018712932099809D02A108A344A680A720A5
:40020000C00FC20EC407CA07CC0ECE04D026D2384030410249FF4AFF4BFF4DA04F0450185A045D015F01604062C06440654066C068C06AC06CC06EC087018B0296029A065B
:40024000A501AB02AE01B002B201B404B502B701BF10C030C106C5D1C620C80BC9FFCAFFCBFFCDAFCE0FCF04D018D280D405D804D904DA04DB04DC11DD11DF01E040E2C08E
:40028000E440E540E6C0E8C0EAC0ECC0EEC00D080F0417401C101D091F24264027082F243F244010412045084F25552057105E805F09774087108C028D0197209C02C260CF
:4002C000C480CA60CE60D046D220D6D0E010E64005020A020B021402180227012B022E0131023202340137013E043F01540F580459045B045F018F01910497069C029E0497
:40030000A201A308A404A802A901B004B102B202B304B401B508B701B808BE01BF44D40FD804D904DB04DF0504200B020E14108813041402182019211A041B081E201F204E
:400340002102224423042680278029202A012F183008310238803E1459115A885E285F82610462207A048110830190809210930299049A019B02A088A224A680A720A90281
:40038000AA04C040C261C48ECA65CC03CE68D6FFD806DE04EA02EE0AEA02EE0A33813648CCF09F01A648A7809F01A648A7809F01A648A78008080B040F40C20E2608A60862
:4003C000AE40AF81C880EA40EE5008800D80562085808C808E20C2C0D440E440AC08AF4400010A0110031A0300EA00004000000000000000C0000000000B0B000000000048
:40040000007F7F0000000000C002020002000000000000000000000000000000000000000000000000000000000000000000000000000000000000000000000000000000F8
:40044000000000000000000000000000000000000000000000000000000000000000000000000000000000000000000000000000000000000000000000000000000000007C
:40048000000000000000000000000000000000000000000000000000000000000000000000000000000000000000000000000000000000000000000000000000000000003C
:4004C00000000000000000000000000000000000000000000000000000000000000000000000000000000000000000000000000000000000000000000000000000000000FC
:4005000000000000000000000000000000000000000000000000000000000000000000000000000000000000000000000000000000000000000000000000000000000000BB
:0200000490006A
:0400000000004005B7
:0200000490105A
:04000000BC90ACAF55
:0200000490303A
:02000000E21FFD
:0200000490402A
:4000000000000000000000000000000000000000000000000000000000000000000000000000000000000000000000000000000000000000000000000000000000000000C0
:400040000000000000000000000000000000000000000000000000000000000000000000000000000000000000000000000000000000000000000000000000000000000080
:400080000000000000000000000000000000000000000000000000000000000000000000000000000000000000000000000000000000000000000000000000000000000040
:4000C0000000000000000000000000000000000000000000000000000000000000000000000000000000000000000000000000000000000000000000000000000000000000
:0200000490501A
:0C00000000012E12306900012E2212882F
:00000001FF