:400000000080002011000000550500005505000008B5044B1A6803F53F5302331A6000F0B9FA00BFFA46004010B5054C237833B9044B13B10448AFF300800123237010BD10
:400040003881FF1F000000005C1B0000084B10B51BB108490848AFF300800848036803B910BD074B002BFBD0BDE81040184700BF000000003C81FF1F5C1B0000C880FF1F34
:40008000000000002DE9F043A9B0584D47F6FF732B80574C2380A86801F0DCF880B200F01DFCA06801F0D6F880B200F0D3FC00F0B9FB2B881844288000F070FC23881844D3
:4000C0002080002000F0B6FB002000F06FFC14AF2E460FCE0FC70FCE0FC796E8030087E803004FF00008CDF85C80BDF95400BDF95030C01A00F0E4FE07461A90414600F052
:4001000033FF1B9900F028FE81461B901D973949384600F029FF07463749484600F024FF0146384600F018FE0146169800F014FE16901EAF0DF1500EBEE80F000FC7BEE855
:400140000F000FC79EE8030087E803001EAF0FCF0FC50FCF0FC597E8030086E803006E4625460FCD0FC60FCD0FC695E8030086E80300CDF80C80BDF90400BDF90030C01A3E
:4001800000F09EFE06460690414600F0EDFE079900F0E2FD0746079009961649304600F0E3FE06461449384600F0DEFE0146304600F0D2FD0146029800F0CEFD02900AAE82
:4001C0006F460FCF0FC60FCF0FC697E8030086E803000AAE0FCE0FC40FCE0FC496E8030085E8030029B0BDE8F08300BF6881FF1F9081FF1F000020410000A040074B4FF62A
:40020000FF721A805A8048F20A00988000219960034B1A805A809880996070479081FF1F6881FF1F10B584B0FFF7E8FF62B600F063FC00F0A5FB00F0ABFA00F02DFA00F03A
:40024000E3FB00F025FB174800F018FA1649B1F9002047F6FF739A1A4A80144CB4F900209B1A6380124901A801F054F801A800F0A9FAB4F902200F4901A801F04BF801A8EA
:4002800000F0A0FAA06800F0BFFF02460A4901A801F040F801A800F095FA0A2000F0A4FAD4E700BF850000006881FF1F9081FF1F601B0000701B00007C1B0000FEE700BF3B
:4002C000F0B40022174611E050F82760F3B226F0FF0608E001EB420511F812406D78A5550132013BDBB2002BF4D10137222FEBD9F0BC7047064B1B78DBB203F00701054AAF
:4003000011701B09013213704422034B1A707047CF0100496E5800407658004008B50A46002100F0EEFF08BD38B507222D4B1A8018232D4A13704FF49C71023211800232CA
:40034000137040F2DF11023211800232137044F61F62264B1A801B2202331A70062203F272231A705222A3F580731A70204B1B78DBB2204A13704FF4E1621F4B1A8041F2A0
:400380005122023B1A80002419250CE01B4B1B7803F0010343EA440404F003044FF4F07000F0AEFC013D0DB1032CEFD115B90320FFF784FF124A4FF48073138007231370E1
:4003C000002310490B7048200231087013700532137002220C4B1A700C4A137843F00F03137038BD80400040824000408C4000400F010049A146004022420040254200403A
:40040000044000400640004001400040A243004008B500F06BFF08BD38B572B6394A137843F00403137000240CE0374D630019194A0011462A44084691882858FFF76EFFCE
:400440000134E4B2062CF0D900240BE02E49A3001819420088188022016BC06AFFF7D8FF0134E4B2002CF1D028494FF09040FFF727FF274A137843F002031370103213789D
:4004800043F002031370234C237843F040032370A2F58632513A137843F01003137008221D491E48FFF7B4FF0A221D491D48FFF7AFFF0A221C491D48FFF7AAFF08221C49E2
:4004C0001C48FFF7A5FF08221B491C48FFF7A0FF08221B491B48FFF79BFF1B4A137843F008031370194D61232B70FFF71DFF81232B70FFF7FFFE0E2221461548FFF788FF0B
:4005000038BD00BFE8460040881B00008C00004803500140A0430040380B004802510040400B0048C05100404C0B0048F0510040580B004812510040600B00482251004095
:40054000680B0048325100402243004000480040B043004008B500F09DFE03680C2B00D1FEE7FEE708B5094B1A681044084BC31A802B02DC054B186005E000F08BFE0C2323
:4005800003604FF0FF32104608BD00BFCC80FF1F7082FF1F08B5104E104D16E029686B68AC68002204E051F8040B43F8040B0432A242F8D1E868002203E0002143F8041BD3
:4005C00004328242F9D11035013E002EE6D100F067FEFFF727FEFEE701000000181C000008B5104A104B1A60104A136843F40073136000230AE0032B03D80D4A52F823107C
:4006000000E00C490C4A42F8231001332F2BF2D90A4B1A780A4B1A70074A0A4B1A60FFF7FBFE08BD0004FA050CED00E014ED00E000000000550500000080FF1FBC760040A8
:40064000C080FF1F08ED00E0014B1B68D864704708ED00E04001C0B2014B1870704700BF03E400E00822014B1A60704700E100E00822014B1A60704780E100E010B504468D
:40068000FFF7F6FF2046FFF7DFFF0720FFF7E2FFFFF7E8FF10BD00BF10B500241F4B1C701F4B1C705C700AE01E4B185DC0B2431EDBB2072B01D800F033FB0134E4B2012CC4
:4006C000F2D9194B1B7813F0FF0F1AD0154B1B7813F0FF0F17D0154B1B7813F0FF0F14D0114B1B78DBB2082B11D80E4B1B78DBB2082B0ED80D4B1B78DBB2082B0BD8002092
:4007000010BD012010BD012010BD012010BD012010BD012010BD012010BD00BF5481FF1FB881FF1FC481FF1FBC81FF1FC081FF1F7222084B1A702022A3F580731A70062242
:40074000613B1A70472210331A70002250331A70704700BF8965004010B500F0D9FA04460A4A137843F020031370A2F58072137843F010031370013A137843F01003137054
:4007800000F042F8204600F0C7FA10BD9965004008B5054B1B7823B9FFF7CAFF0122024B1A70FFF7D9FF08BD5581FF1F034B1B7813F0040FFAD1024B1870704768640040D7
:4007C0004865004038B5074B1B782BB938BDFFF7EDFF0134A4B201E005460024285D0028F5D138BD5581FF1F08B5064B1B783BB1FFF7DCFF0D20FFF7D9FF0A20FFF7D6FFFA
:4008000008BD00BF5581FF1F054A137843F0020313701032137843F002031370704700BFA243004008B500F08FF9A0F5004000B208BD00BF08B5002803DB80B280F400409F
:4008400002E0A0F5004080B200F078F908BD00BF024B187800F00F00704700BF6D640040014B1870704700BF8D64004008B50F20FFF7F6FFFFF7ECFF00F04AFA034A137808
:4008800043F01003137000F047FA08BD9D64004008B500F0ABF94FF4004000F04FF9044B1B7813B90122024B1A70FFF7DFFF08BD5781FF1F024A137843F08003137070472E
:4008C00072640040014B1880704700BF04680040014B1880704700BF84680040014B1880704700BF44680040014B1870704700BF82640040014B1878704700BF6264004048
:40090000014B188880B27047A468004008B501E0FFF7F6FFFFF7EEFF10F0100FF8D108BD10B5154A137803F0C00343F009031370124C237843F0010323702132137843F082
:400940000103137040F2E730FFF7BCFF40F2E730FFF7BEFF0020FFF7C1FF0020FFF7C4FF00F0D6F9237843F01003237000F0D4F9FFF7CCFF10BD00BF7264004092640040C2
:4009800008B5054B1B7823B9FFF7CAFF0122024B1A70FFF78FFF08BD5881FF1F08B500F04DF9A0F5004000B208BD00BF08B5002803DB80B280F4004002E0A0F5004080B232
:4009C00000F036F908BD00BF024B187800F00F00704700BF67650040014B1870704700BF8765004008B50F20FFF7F6FFFFF7ECFF00F08EF9034A137843F01003137000F0C0
:400A00008BF908BD9765004008B500F069F94FF4004000F00DF9044B1B7813B90122024B1A70FFF7DFFF08BD5981FF1F024A137843F08003137070477C640040014B1880A5
:400A4000704700BF18680040014B1880704700BF98680040014B1880704700BF58680040014B1870704700BF8C640040014B1878704700BF6C640040014B188880B270479B
:400A8000B868004008B501E0FFF7F6FFFFF7EEFF10F0100FF8D108BD10B5154A137803F0C00343F009031370124C237843F0010323702132137843F00103137040F2E730F2
:400AC000FFF7BCFF40F2E730FFF7BEFF0020FFF7C1FF0020FFF7C4FF00F01AF9237843F01003237000F018F9FFF7CCFF10BD00BF7C6400409C64004008B5054B1B7823B9F9
:400B0000FFF7CAFF0122024B1A70FFF78FFF08BD5A81FF1F024A137843F080031370704775640040014B1870704700BF85640040014B1878704700BF65640040014B188028
:400B4000704700BF08680040024B1B78024B188880B270470464004088680040014B188880B2704788680040014B1880704700BF48680040014B1880704700BF6868004008
:400B800008B501E0FFF7EAFFFFF7D2FF10F0400FF8D108BD08B5134B1A7802F0F8021A701A7802F0FC021A70FFF7EAFF4FF40040FFF7DAFF4FF40040FFF7C0FF0020FFF766
:400BC000B1FFFFF7B5FF4FF40040FFF7D3FF00F09FF8054A137843F01003137000F09CF808BD00BF756400409564004008B5054B1B7823B9FFF7CEFF0122024B1A70FFF79D
:400C000089FF08BD5B81FF1F024A137843F080031370704777650040014B1870704700BF87640040014B1878704700BF67640040014B1880704700BF0C6A0040024B1B78C8
:400C4000024B188880B27047066500408C6A0040014B188880B270478C6A0040014B1880704700BF4C6A0040014B1880704700BF6C6A004008B501E0FFF7EAFFFFF7D2FFAE
:400C800010F0400FF8D108BD08B5134B1A7802F0F8021A701A7802F0FC021A70FFF7EAFF4FF40040FFF7DAFF4FF40040FFF7C0FF0020FFF7B1FFFFF7B5FF4FF40040FFF7D6
:400CC000D3FF00F025F8054A137843F01003137000F022F808BD00BF776500409764004008B5054B1B7823B9FFF7CEFF0122024B1A70FFF789FF08BD5C81FF1F0000000016
:400D00000230800803D000BF01380046FCD17047EFF3108072B6704780F31088704700BF431EDBB2072B0BD8420002449300054A134400225A705A79D2B20001024B1A54CF
:400D4000704700BFF881FF1FFE5F004080F0004002E000BF81F0004142001FBF5FEA410392EA030F7FEA226C7FEA236C6AD04FEA1262D2EB1363C1BFD2184140484041408E
:400D8000B8BF5B42192B88BF704710F0004F40F4000020F07F4018BF404211F0004F41F4000121F07F4118BF494292EA030F3FD0A2F1010241FA03FC10EB0C00C3F120032E
:400DC00001FA03F100F0004302D5494260EB4000B0F5000F13D3B0F1807F06D340084FEA310102F10102FE2A51D2B1F1004F40EBC25008BF20F0010040EA030070474900AA
:400E000040EB000010F4000FA2F10102EDD1B0FA80FCACF1080CB2EB0C0200FA0CF0AABF00EBC25052421843BCBFD0401843704792F0000F81F4000106BF80F40000013243
:400E4000013BB5E74FEA41037FEA226C18BF7FEA236C21D092EA030F04D092F0000F08BF0846704790EA010F1CBF0020704712F07F4F04D1400028BF40F00040704712F175
:400E800000723CBF00F50000704700F0004343F0FE4040F4000070477FEA226216BF08467FEA23630146420206BF5FEA412390EA010F40F4800070474FF0000304E000BFB4
:400EC00010F0004348BF40425FEA000C08BF704743F0964301464FF000001CE050EA010208BF70474FF000030AE000BF50EA010208BF704711F0004302D5404261EB410139
:400F00005FEA010C02BF84460146002043F0B64308BFA3F18053A3F50003BCFA8CF2083AA3EBC25310DB01FA02FC634400FA02FCC2F12002BCF1004F20FA02F243EB0200C9
:400F400008BF20F00100704702F1200201FA02FCC2F1200250EA4C0021FA02F243EB020008BF20EADC7070474FF0FF0C1CEAD0521EBF1CEAD15392EA0C0F93EA0C0F6FD07F
:400F80001A4480EA010C400218BF5FEA41211ED04FF0006343EA501043EA5111A0FB01310CF00040B1F5000F3EBF490041EAD3715B0040EA010062F17F02FD2A1DD8B3F15F
:400FC000004F40EBC25008BF20F00100704790F0000F0CF0004C08BF49024CEA502040EA51207F3AC2BFD2F1FF0340EAC250704740F400004FF00003013A5DDC12F1190FA5
:40100000DCBF00F000407047C2F10002410021FA02F1C2F1200200FA02FC5FEA310040F1000053EA4C0308BF20EADC70704792F0000F00F0004C02BF400010F4000F013A36
:40104000F9D040EA0C0093F0000F01F0004C02BF490011F4000F013BF9D041EA0C018FE70CEAD15392EA0C0F18BF93EA0C0F0AD030F0004C18BF31F0004CD8D180EA010013
:4010800000F00040704790F0000F17BF90F0004F084691F0000F91F0004F14D092EA0C0F01D142020FD193EA0C0F03D14B0218BF084608D180EA010000F0004040F0FE4036
:4010C00040F40000704740F0FE4040F4400070474FF0FF0C1CEAD0521EBF1CEAD15392EA0C0F93EA0C0F69D0A2EB030280EA010C49024FEA402037D04FF0805343EA111136
:4011000043EA10130CF000408B4238BF5B0042F17D024FF4000C8B4224BF5B1A40EA0C00B3EB510F24BFA3EB510340EA5C00B3EB910F24BFA3EB910340EA9C00B3EBD10FD8
:4011400024BFA3EBD10340EADC001B0118BF5FEA1C1CE0D1FD2A3FF650AF8B4240EBC25008BF20F0010070470CF0004C4CEA50207F32C2BFD2F1FF0340EAC250704740F4FF
:4011800000004FF00003013A37E792F0000F00F0004C02BF400010F4000F013AF9D040EA0C0093F0000F01F0004C02BF490011F4000F013BF9D041EA0C0195E70CEAD153B9
:4011C00092EA0C0F08D142027FF47DAF93EA0C0F7FF470AF084676E793EA0C0F04D14B023FF44CAF08466EE730F0004C18BF31F0004CCAD130F000427FF45CAF31F00043AD
:401200007FF43CAF5FE700BF4FEA4002B2F1FE4F0FD34FF09E03B3EB12620DD94FEA002343F0004310F0004F23FA02F018BF404270474FF00000704712F1610F01D1420267
:4012400005D110F0004008BF6FF0004070474FF00000704742000ED2B2F1FE4F0BD34FF09E03B3EB126209D44FEA002343F0004323FA02F070474FF00000704712F1610F85
:4012800001D1420202D14FF0FF3070474FF00000704700BF014B1868704700BF3081FF1F0E4B70B51E460E4C0025E41AA410A54204D056F8253098470135F8E700F09AFC6F
:4012C000084B094C1E46E41AA4100025A54204D056F8253098470135F8E770BD001C0000001C0000001C0000081C000010B5431E0A44914204D011F8014B03F8014FF8E77A
:4013000010BD03460244934202D003F8011BFAE7704700000EB400B54FF402719CB0ADF814106FF00041049107914FF6FF711DAB02900690084853F8042BADF8161000684A
:4013400002A9019300F064F8029B00221A701CB05DF804EB03B070473081FF1F2DE9F0478E6882469E420C46914698463ED88A8912F4906F3AD02568096902236F1A6569AB
:4013800005EB450595FBF3F57B1C43449D4238BF1D4653050FD5294600F040FB064698B13A462169FFF7A2FFA38923F4906343F08003A38113E02A4600F08EFB064670B9B7
:4013C0002169504600F0DEFA0C23CAF80030A3894FF0FF3043F04003A381BDE8F08726613E44266046466561ED1BA560464528BF464649463246206800F0A8FAA36800205C
:401400009B1BA36023681E442660BDE8F08700002DE9F04F9DB003938B8980461C060D4616460DD50B695BB9402100F0F7FA2860286118B90C23C8F80030CDE040236B61F8
:401440000023099320238DF82930DFF89CB130238DF82A3037463C4614F8013B1BB9B7EB060910D003E0252BF9D02746F3E74B46324629464046FFF771FF013000F0A7809B
:40148000099B4B4409933B78002B00F0A08000234FF0FF3204930793059206938DF853301A930126052221784E4800F041FA671C049B38B14B4A3C46801A06FA00F0184317
:4014C0000490EFE7D90644BF20228DF853201A0744BF2B228DF8532022782A2A03D0079A00210A200BE0039A111D12680391002A10DA524243F00200079204900BE027462A
:401500003B780134303B092B03D800FB02320121F5E701B107923B782E2B1ED17B782A2B0AD1039B02371A1D1B680392002BB8BF4FF0FF33059310E0002319460593781C44
:401540000A2407463A780130303A092A03D804FB01210123F5E703B1059103223978224800F0E6F940B14023CBEB000003FA00F0049B013718430490397806221B487E1C88
:401580008DF8281000F0D4F988B1194B33B9039B073323F007030833039314E003AB00932A46144B04A94046AFF3008007E003AB00932A460F4B04A9404600F093F8B0F1C8
:4015C000FF3F824603D0099B5344099342E7AB895B0601D4099801E04FF0FF301DB0BDE8F08F00BFC01B0000C61B0000CA1B0000000000005D1300002DE9F04791461F466E
:401600000A698B6806469342B8BF1346C9F8003091F843200C46DDF8208012B10133C9F800302368990642BFD9F800300233C9F80030256815F0060510D104F1190A07E0F8
:401640000123524639463046C04701301AD00135E368D9F800209B1A9D42F1DB94F843302268003318BF012392060FD5E118302081F843005A1C94F845102244023382F821
:40168000431003E04FF0FF30BDE8F08704F1430239463046C0470130F4D02268D9F80050E36802F00602042A08BF5D1B2269A3680CBF25EAE57500259342C4BF9B1AED18E1
:4016C0004FF000091A344D4509D00123224639463046C0470130D5D009F10109F3E70020BDE8F0872DE9F04317460A7E85B06E2A984606460C460C9B01F1430E00F0AE80F2
:4017000011D8632A22D009D8002A00F0BB80582A40F0CA8081F84520834955E0642A1ED0692A1CD0C0E0732A00F0B08009D86F2A2ED0702A40F0B8800A6842F020020A602E
:401740003EE0752A24D0782A3AD0ADE01A6801F14205111D1960136884F84230A8E021681A6811F0800F02D0111D196008E011F0400F02F10401196002D0B2F9003000E0E2
:401780001368002B3CDA2D225B4284F8432037E021681A6811F0800F02D0111D196007E011F0400F02F10401196001D0138800E01368227E5C496F2A14BF0A2208221BE006
:4017C00078225A4984F845202268186812F0800F00F104051D6003D1550601D5038800E00368D00744BF42F0200222601BB9226822F0200222601022002084F8430001E028
:4018000049490A226568002DA56008DB206820F0040020602BB9002D7DD175460CE0002B79D07546B3FBF2F002FB1033CB5C05F8013D03460028F5D1082A0BD12368DA07D4
:4018400008D5236962689A42DEBF302305F8013C05F1FF35C5EB0E0323612EE008681A6810F0800F496903D0101D1860136808E010F0400F02F104001860136801D0198001
:4018800000E0196000232361754616E01A68111D1960156800216268284600F049F808B1401B6060636804E004F1420584F8422001232361002384F84330CDF800803B462A
:4018C00003AA21463046FFF797FE013002D14FF0FF3026E023692A4639463046C0470130F5D023689B0710D5002504F1190907E001234A4639463046C0470130E7D001356A
:40190000E368039A9B1A9D42F2DBE068039B9842B8BF184605E00B7804F1420584F842308AE705B0BDE8F083D11B0000E21B000010B5C9B202449042034605D01C780130D5
:401940008C42F8D1184610BD002010BD884210B501EB020301D8421E0BE09842FBD28118D21AD34204D013F8014D01F8014DF8E710BD994204D011F8014B02F8014FF8E786
:4019800010BD000038B50546002944D051F8043C0C1F002BB8BFE41800F0D4F81E4A1368114613B96360146030E0A3420DD92268A018834201BF18685B6812182260636046
:4019C0000C6023E0A24203D813465A68002AF9D118681918A1420BD12168014458188242196013D110685268014419605A600DE002D90C232B6009E021686018824201BF41
:401A0000106852680918216062605C602846BDE8384000F098B838BD6481FF1F70B5CD1C25F0030508350C2D38BF0C25002D064601DBA94202D90C23336046E000F082F85B
:401A4000234B1C681A462146A1B10B685B1B0ED40B2B03D90B60CC18CD501EE08C420BBF63684B681360636018BF0C4615E00C464968E9E7174C23681BB9304600F052F865
:401A800020602946304600F04DF8431C18D0C41C24F00304A0420DD12560304600F053F804F10B00231D20F00700C31A0ED05A42E25070BD211A304600F034F80130EBD18D
:401AC0000C233360304600F03EF8002070BD00BF6481FF1F6081FF1FF8B5074615460E4621B91146BDE8F840FFF798BF1AB9FFF749FF2846F8BD00F027F885420ED9294616
:401B00003846FFF78BFF044650B131462A46FFF7EDFB31463846FFF735FF01E03046F8BD2046F8BD38B5064C0023054608462360FEF718FD431C02D1236803B12B6038BDD8
:401B40006C82FF1F7047704751F8040C0028BEBF091851F8043CC0180438704700000000722E74656D70636E74203D2025780000722E636E74203D2025780000722E616E55
:401B800073203D2025640000405100403000000001400010001401400006801A0140800100400140000A004C014000020050014020000000001A0140B80A004880004300B0
:401BC000232D302B2000686C4C00656667454647003031323334353637383941424344454600303132333435363738396162636465660000F8B500BFF8BC08BC9E46704773
:401C00004D000000E1050000F8B500BFF8BC08BC9E46704729000000281C0000C880FF1F7000000038010000000000007082FF1F0000000000000000000000000000000066
:401C400000000000000000000000000000000000BE1B000000000000000000000000000000000000000000000000000000000000000000000000000000000000000000008B
:401C800000000000000000000000000000000000D080FF1F0000000000000000000000000000000000000000000000000000000000000000000000000000000000000000B6
:401CC00000000000000000000000000000000000000000000000000000000000000000000000000000000000000000000000000000000000000000000000000000000000E4
:401D000000000000000000000000000000000000000000000000000000000000000000000000000000000000000000000000000000000000000000000000000000000000A3
:401D40000000000000000000000000000000000000000000000000000000000000000000000000000000000000000000000000000000000000000000000000000000000063
:401D80000000000000000000000000000000000000000000000000000000000000000000000000000000000000000000000000000000000000000000000000000000000023
:020000040003F7
:0200000480007A
:400000000145004004520040076400400265004068020140370301405E040140570501403B06014047070140520801403F0901400F0B01405F0C0140330D014006150140D3
:40004000671601404B170140511801404D190140191A0140461B0140054001400C4101400742014002430140054501400446014006470140034801400C490140014C014040
:40008000074D01400A500140015101407E020001618064407C40820D856F876F880F89388C0D8D0F870F89720102020109020F09130119011E06260227042E0C30083104AF
:4000C00032023308340435013601370239803E043F104010410349FF4AFF4BFF4DA04F04501852805405580459045A045B045C025D225F01604062C06440654066C068C01B
:400100006AC06CC06EC0842285A38610875C881A8A208D0E8E3A8FF0900291969208936895FE970199C59A049B3AA001A17FA422A608A701A801AC38B001B23AB406B5FF07
:40014000B802BF10C010C102C5D0C621C80EC9FFCAFFCBFFCDAFCE0FCF04D018D804D904DA04DD02DF01E040E2C0E440E540E6C0E8C0EAC0ECC0EEC001080309074009206A
:400180000B800D801245130415801610188019081A201B201C041D8621202402250127A429012A012B202C20321033093502372038083B843E423F204190458046104B01A7
:4001C0005150521059045B085C805F09774084808710C017C28AC4AFCA43CCA7CEBAD05CD6D0E601EA0406020D0A13011D0C2201290C2C012D06310E320233013601390234
:400200003E404035410449FF4AFF4BFF4DA04F015018580459045A045F016040628064406540668068406A806C406D206E808004880489968B688DFE8F019001917F9402B1
:4002400095A3975C98029D0E9E019FF0A004A9C5AB3AAC02AF01B204B401B602B7FFB888BE44BF40C035C104C54CC620C73EC83BC9FFCAFFCBFFCDAFCE07CF01D018D28002
:40028000D40FD804D904DA04DB04DC02DF05E040E280E440E540E680E840EA80EC40ED20EE800320050106040C200D420E200F201081164219801A101C021D081F10220A64
:4002C0002310264029202B012D202E402F04304234083602378039403D403F10408043044480470448014B404C804F44560A57105C045D805E226608670475027A027B010B
:400300007E0284488510861087808C028E04908091809408964097A0980399089B849D039E469F01A102A320A718A826AC01B401B501C054C2F0C499CA3CCCD9CE38D0C364
:40034000D218D6F0D860DE10E440E608EA02EE0103010421061008010A080B040E041202164018401C3822392404270228212A082C192E20300332393304340435013640B6
:4003800037023E50580459045F01810482038501860487028B048C028D079110920494049B089F30A307A901AB02AD07B001B120B310B402B50FB604BE50BF04D40FD8040A
:4003C000D904DB04DF0502400322052006220A100B400E880F22155117081A0A1B021C241E421F0420082105220226042709288029202A102B012F1030A0320239513B08C1
:400400003E023F20581259805A0861246410660478408584908091119210940C954096409788980299089A129C809D019E449F01A108A240A331A601A708B020B101B20A80
:40044000B480C0EDC2FCC4F0CA4DCC0DCEAFD60FD806DE08000A020504050573060A09300A200BC90C0F0DFD0F0211941360140C1603180719CF1B3020102B0F2C032D9EFD
:400480002E0C2F60300F3220341035FF3E103F104002450449FF4A074BFF4C404D204EF04F0550085401580459045A045B045D115F01604061A86240632084018602870180
:4004C0008A108C04920894079A109C029E01A208A407A810AB01AC10B003B210B408B501B604B808BB02BE10BF10D418D804D904DB04DC11DD10DF0101480208044006604B
:40050000070408400A180B400E2410A0111012021402150119901A801B041C401E481F0520802120220225102B042F0A304032403402361139083E6446084D044F025B023F
:400540005C805D215E0861206280811082809204964097089A209B049C109E40A211B224B708C0F7C26FC49FCA34CCA0CE72D020D6F1D80CECE086108F04964497089C10E5
:400580009E609F0CA211A804AD02B140B512B601E410E8500220040806010A400C200F08100B1204140C1602170218071B011E0F1F04200C220123042501262029022A10D3
:4005C0002D012E1030403108320F330134103502362037043E503F144010410649FF4AFF4BFF4DA04F04501852805405580459045A045B045C205D225F01604062C0644008
:40060000654066C068C06AC06CC06EC09F01A201A501B101B201C010C106C5D0C601C702C816C9FFCAFFCBFFCDAFCE0FCF04D018D40FD804D904DA04DB04DC22DD02DF01D6
:40064000E040E2C0E440E540E6C0E8C0EAC0ECC0EEC00582062007080C010E66108014101644174019081D421E281F02204024082540275029082C902D802F063080351068
:4006800037443E80434047404A084B014E085080520C580159405A045B105C405E085F017680C0F0C2F0C4F8CAF2CC78CE10D018D224D6DFE601EA0487109720AA01AB08B2
:4006C000B020EC20007604CC063007070C500D770EA01184131014FA15C017241A011C301EC0210123F224AC25C12650271229B72B402F08300E32F0330F35F03601380295
:400700004053410249FF4AFF4BFF4DA04F015018580459045A045F016040628064406540668068406A806C406D206E808103849E866088FD8A028C308EC98F03909492602A
:4007400095019702A4CFA630AA0FAC73B501B6FFB702BE40BF50C053C102C54EC6C3C702C81FC9FFCAFFCBFFCDAFCE07CF01D018D280D40FD804D904DA04DB04DF01E040C7
:40078000E280E440E540E680E840EA80EC40ED20EE800108021003090408050107010B800C200E221229161019801D011E621F4822502408250426282714284029012A01BB
:4007C0002D882F4832083705388039023D083E404108431045084710488049044A024E035120524458025AA05B08734080028308908091029202940897E099089B019C40CE
:400800009D059E44A108A480A520A708A820B094B220B540C0B7C2E8C427CAF0CCC2CE59D066D218D60FEA030208030310331101120C1316151C1703180319011A041B0E40
:400840001E15242A2604270828332A042F1C300F331A3430350F38203A023B283E104014410245EC460B480749FF4AFF4BFF4EF04F44500C580459045A045C115D015F019F
:4008800066C06A406B02811084018518880189088C018D678F18911C9361940195609B049D40A17FA524A780A91CAB62AF63B001B31FB580B760BB08BE01D602D713D8047C
:4008C000D904DB04DC10DD10DF0100E4011002210680080409080C410E800F06171419011EC42108221423022714280429882A012D042E802F023104325134013714382842
:400900003A023B803E0C3F02444147104D014F045640590165206704682869406A10701472028A2191049280940495599618974099809C809D289E089F02A040A301A4A0C7
:40094000A910B010B240B30AB404B608B701C017C2D4C460CA5FCCEFCE8FD0B0D601E820EA42EC8080148302840C86118702881C8A028C098E10970299029A03A010A20CFD
:40098000A410A501AD02B301B41FB702BF44D804D904DC01DF0101400310048006400714081809800A400E04106815041680188019041B021E042025221823402508268067
:4009C000281429842A022EC431803258348836803714386A3F064041430849804A0850805104850887488C018D489068910492C09304940495089740984499809A429B1445
:400A00009C809D0CA028A301A490A702B010B340C0F5C24FC43ECA5FCC6ECECFD00BD20CE0023180330136043710CCF003020680562081809F01A580A604AB10C060D44010
:400A4000E680EA208F029F01A302A604AAA0E880EA209F01A60450088240A740AB40D4049680A740B008EC040A800B040F809680A740C20EA604AF01EA400A040D801910DA
:400A80008110820485809604A604B204C2C0C640E440AF041280710285028E80C408DC01E202000708050A050C030E05100311011A011C021D0100EA00010020080C0000BA
:400AC0000004000002CF01000800000000C3080C010F06C0040201201008000007030010078C0043000000C3188C070F004C003002000028000000406504030001000C0E52
:400B000014FFFFFF62A0F0410C0000000000000004040400110100010000000000004002001030100010101200000000000000000000000000000000060101000100000079
:400B40008000408080008000000000004000000000000000C0000000000B0B00000000000002020002000000C0000000000000000000000000000000000000000000000059
:400B80000000000000000000000000000000000000000000000000000000000000000000000000000000000000000000000000000000000000000000000000000000000035
:400BC00000000000000000000000000000000000000000000000000000000000000000000000000000000000000000000000000000000000000000000000000000000000F5
:400C000000000000000000000000000000000000000000000000000000000000000000000000000000000000000000000000000000000000000000000000000000000000B4
:400C40000000000000000000000000000000000000000000000000000000000000000000000000000000000000000000000000000000000000000000000000000000000074
:0200000490006A
:0400000000004005B7
:0200000490105A
:04000000BC90ACAF55
:0200000490303A
:02000000538E1D
:0200000490402A
:4000000000000000000000000000000000000000000000000000000000000000000000000000000000000000000000000000000000000000000000000000000000000000C0
:400040000000000000000000000000000000000000000000000000000000000000000000000000000000000000000000000000000000000000000000000000000000000080
:400080000000000000000000000000000000000000000000000000000000000000000000000000000000000000000000000000000000000000000000000000000000000040
:4000C0000000000000000000000000000000000000000000000000000000000000000000000000000000000000000000000000000000000000000000000000000000000000
:0200000490501A
:0C00000000012E16106900012E2463F789
:00000001FF